:100000000C942A000C9447000C9447000C94470071
:100010000C9447000C9447000C9447000C94470044
:100020000C9447000C9447000C9447000C9469030F
:100030000C9447000C9447000C9447000C94470024
:100040000C9447000C9447000C9447000C94470014
:100050000C94470011241FBECFE5D8E0DEBFCDBF12
:1000600012E0A0E6B0E0EAE5FFE002C005900D92E4
:10007000AE3EB107D9F722E0AEEEB2E001C01D926C
:10008000A43FB207E1F70E946F020C94AB070C94F7
:1000900000001ABA88E087BB14BA11BA089585BB6C
:1000A0008FE39FE10197F1F700C0000082B38B7FDF
:1000B00082BB82B38D7F82BB82B3816082BB8FE3C0
:1000C0009FE10197F1F700C0000082B38E7F82BBF1
:1000D000089585BB8FE39FE10197F1F700C0000011
:1000E00082B3846082BB82B38D7F82BB82B3816026
:1000F00082BB8FE39FE10197F1F700C0000082B35C
:100100008E7F82BB0895019739F482B3806182BBF0
:1001100082B3877F82BB089582B38F7E82BB82B316
:10012000886082BB0895CF93DF9300D000D0CDB715
:10013000DEB780E1898388EB8A8380E48B838FE359
:100140008C8381E090E00E9483001092EF02109275
:10015000EE0212C0E1E0F0E0EC0FFD1FE80FF91F26
:1001600080810E944F008091EE029091EF020196F3
:100170009093EF028093EE028091EE029091EF0255
:10018000843091053CF380E090E00E94830010925F
:10019000EF021092EE0212C0E1E0F0E0EC0FFD1F62
:1001A000E80FF91F80810E944F008091EE0290912C
:1001B000EF0201969093EF028093EE028091EE029F
:1001C0009091EF02843091053CF30F900F900F90C7
:1001D0000F90DF91CF9108952F923F924F925F92AF
:1001E0006F927F928F929F92AF92BF92CF92DF9247
:1001F000EF92FF920F931F93CF93DF9300D000D025
:100200001F92CDB7DEB76B831A01262F285429839E
:100210000E94830089810E944F00812C712C612CE7
:100220000F2EFFE39F2EF02DF12C1A8233C18F2D5C
:1002300090E03B81432E512C5194419451085694A7
:10024000542C442457944794E6E04E1AECEF5E0A8F
:10025000481659060CF428C1203209F044C049C0A0
:100260000E2D10E00F0D111D20E030E040E05FE3A7
:10027000682D772D862D992D0E949103A62EB72EDD
:10028000C82ED92E0E94FD037695762F6627779586
:1002900067950617170729F5F6E0EF1651F180E488
:1002A0000E944F00FE0C92B380E1892782BB92B37B
:1002B00088E0892782BB2981622F70E080E090E08E
:1002C0000E943504282D372D462D592D0E9491036B
:1002D0000E940404862F0E944F008A2C7B2C6C2CD9
:1002E0009D2CE39402C0EE24E39436E03E1508F022
:1002F000B7CF8F2D90E0481659060CF4D5C0EC818D
:10030000FD818081803209F447C010E08EC0EC810D
:10031000FD81808190E08097FC01EE0FFF1FE80FC8
:10032000F91FEE0FFF1FE05AFF4FE10FF11D808113
:100330000E9469008F2D90E001968F739927892B79
:1003400041F592B380E1892782BB92B388E0892787
:1003500082BBF9816F2F70E080E090E00E9435044D
:10036000282D372D462D592D0E9491030E940404FB
:10037000862F0E944F0020E030E040E05FE3682DD0
:10038000772D862D992D0E949103862E772E682E2B
:10039000992EF3941F5F01C010E0163008F4B7CF18
:1003A00076C0EC81FD81808190E08097FC01EE0FAA
:1003B000FF1FE80FF91FEE0FFF1FE05AFF4FE10F7D
:1003C000F11D80810E9469008F2D90E001968F734E
:1003D0009927892B41F592B380E1892782BB92B39B
:1003E00088E0892782BBF9816F2F70E080E090E080
:1003F0000E943504282D372D462D592D0E9491033A
:100400000E940404862F0E944F0020E030E040E06C
:100410005FE3682D772D862D992D0E949103862EFE
:10042000772E682E992EF3941F5F163008F4B9CFFB
:1004300080E00E946900F3948F2D8F7341F592B391
:1004400080E1892782BB92B388E0892782BB29811A
:10045000622F70E080E090E00E943504282D372D57
:10046000462D592D0E9491030E940404862F0E945C
:100470004F0020E030E040E05FE3682D772D862DCF
:10048000992D0E949103862E772E682E992E3A81FF
:100490003F5F3A83C101EA818E0F911D9D838C835A
:1004A000FC0120812111C3CE80E40E944F000F90F7
:1004B0000F900F900F900F90DF91CF911F910F91A0
:1004C000FF90EF90DF90CF90BF90AF909F908F9074
:1004D0007F906F905F904F903F902F9008950E9473
:1004E00049000E948D020E94930086E990E00E94DC
:1004F000AB026CEE74EF80E090E00E94F3020E9489
:1005000028032FEF83ED90E3215080409040E1F7E6
:1005100000C000000E94DE02F2CF0E9445038FEF70
:1005200081BB84BB8FE39FE10197F1F700C000001E
:1005300082B38F7D82BB8FE39CE90197F1F700C006
:10054000000082B3806282BB8FE39FE10197F1F7E5
:1005500000C0000008950F931F93CF93DF93CDB792
:10056000DEB72A970FB6F894DEBF0FBECDBF1F923D
:100570008AE38F9380EA92E09F938F938E010F5FBF
:100580001F4F1F930F930E94C10486E98CBFA801DF
:1005900061E082E090E00E94EC000F900F900F90DD
:1005A0000F900F900F902A960FB6F894DEBF0FBEF3
:1005B000CDBFDF91CF911F910F91089543EA52E093
:1005C00067E081E090E00E94EC008FE39CE90197F6
:1005D000F1F700C0000048EB52E067E081E090E0F6
:1005E0000E94EC00EBCF0F931F93CF93DF93CDB717
:1005F000DEB7C456D1090FB6F894DEBF0FBECDBF2B
:100600001F921F9284EF8F938CEE8F938DEC92E06C
:100610009F938F938E010F5F1F4F1F930F930E9425
:10062000C104A80160E082E090E00E94EC000FB6F7
:10063000F894DEBF0FBECDBFCC59DF4F0FB6F89494
:10064000DEBF0FBECDBFDF91CF911F910F910895F7
:1006500041ED52E060E081E090E00E94EC0047ED67
:1006600052E061E081E090E00E94EC0041EE52E057
:1006700065E081E090E00E94EC0047EE52E065E02A
:1006800081E090E00E94EC00089589B78E7F89BFD9
:1006900089B78D7F89BF88B7816088BF88B782603E
:1006A00088BF12BE1CBE83B7806483BF83B78860D7
:1006B00083BF83B78F7E83BF83B7806283BF83B7D7
:1006C000816083BF83B78D7F83BF83B78B7F83BFF9
:1006D00008951F920F920FB60F9211242F933F93FC
:1006E0004F935F936F937F938F939F93AF93BF933A
:1006F000EF93FF93E091F202F091F3020995FF91DD
:10070000EF91BF91AF919F918F917F916F915F9189
:100710004F913F912F910F900FBE0F901F90189502
:100720005058BB27AA270E94A8030C9487040E9454
:10073000790438F00E94800420F039F49F3F19F4C6
:1007400026F40C9476040EF4E095E7FB0C94700408
:10075000E92F0E94980458F3BA17620773078407B9
:10076000950720F079F4A6F50C94BA040EF4E09500
:100770000B2EBA2FA02D0B01B90190010C01CA015B
:10078000A0011124FF27591B99F0593F50F4503E06
:1007900068F11A16F040A22F232F342F4427585FF8
:1007A000F3CF469537952795A795F0405395C9F710
:1007B0007EF41F16BA0B620B730B840BBAF09150C8
:1007C000A1F0FF0FBB1F661F771F881FC2F70EC067
:1007D000BA0F621F731F841F48F48795779567953A
:1007E000B795F7959E3F08F0B0CF9395880F08F026
:1007F0009927EE0F9795879508950E9404046894B1
:10080000B1110C94BB0408950E94A00488F09F5776
:1008100098F0B92F9927B751B0F0E1F0660F771F24
:10082000881F991F1AF0BA95C9F714C0B13091F01A
:100830000E94BA04B1E008950C94BA04672F782F8F
:100840008827B85F39F0B93FCCF3869577956795DF
:10085000B395D9F73EF490958095709561957F4F4B
:100860008F4F9F4F0895E89409C097FB3EF49095F1
:100870008095709561957F4F8F4F9F4F9923A9F079
:10088000F92F96E9BB279395F69587957795679508
:10089000B795F111F8CFFAF4BB0F11F460FF1BC04C
:1008A0006F5F7F4F8F4F9F4F16C0882311F096E9DF
:1008B00011C0772321F09EE8872F762F05C066238D
:1008C00071F096E8862F70E060E02AF09A95660F46
:1008D000771F881FDAF7880F9695879597F90895FF
:1008E00097F99F6780E870E060E008959FEF80ECE3
:1008F000089500240A941616170618060906089586
:1009000000240A9412161306140605060895092EEB
:100910000394000C11F4882352F0BB0F40F4BF2B5A
:1009200011F460FF04C06F5F7F4F8F4F9F4F08959A
:1009300057FD9058440F551F59F05F3F71F0479590
:10094000880F97FB991F61F09F3F79F08795089575
:10095000121613061406551FF2CF4695F1DF08C094
:10096000161617061806991FF1CF869571056105B1
:1009700008940895E894BB2766277727CB0197F959
:100980000895AEE0B0E0E7ECF4E00C9482070D8946
:100990001E8986E08C831A8309838FEF9FE79E83ED
:1009A0008D83AE01475E5F4F6F89788DCE010196D2
:1009B0000E94E304EF81F885E00FF11F10822E966C
:1009C000E4E00C949E07ABE0B0E0E9EEF4E00C94B8
:1009D00074076C017B018A01FC01178216828381F6
:1009E00081FFCCC1CE0101963C01F6019381F70154
:1009F00093FD859193FF81917F01882309F4BAC10A
:100A0000853239F493FD859193FF81917F01853281
:100A100029F4B60190E00E94DA06E7CF912C212C50
:100A2000312CFFE1F315D8F08B3279F038F48032B5
:100A300079F08332A1F4232D20611DC08D3261F045
:100A4000803369F4232D216016C0832D8260382EF7
:100A5000E32DE4603E2E2AC0F32DF8601DC037FC64
:100A60002DC020ED280F2A3040F08E32B9F436FC2C
:100A700081C1232D2064322E19C036FE06C08AE0C3
:100A8000989E200D1124922E11C0EAE02E9E200D7A
:100A90001124222EF32DF0623F2E08C08C3621F453
:100AA000832D8068382E02C0883641F4F70193FD0B
:100AB000859193FF81917F018111B3CF982F9F7D05
:100AC0009554933028F40C5F1F4F9FE399830DC01A
:100AD000833631F0833771F0833509F059C021C076
:100AE000F801808189830E5F1F4F88248394912CA5
:100AF000530113C02801F2E04F0E511CF801A080F1
:100B0000B18036FE03C0692D70E002C06FEF7FEF49
:100B1000C5010E94CF064C018201F32DFF773F2EC5
:100B200016C0280122E0420E511CF801A080B180BD
:100B300036FE03C0692D70E002C06FEF7FEFC50184
:100B40000E94C4064C01F32DF0683F2E820133FC55
:100B50001BC0822D90E088169906B0F4B60180E2A1
:100B600090E00E94DA062A94F4CFF50137FC8591D3
:100B700037FE81915F01B60190E00E94DA062110F4
:100B80002A9421E0821A91088114910471F7E8C037
:100B9000843611F0893641F5F80137FE07C06081CF
:100BA0007181828193810C5F1F4F08C060817181C8
:100BB000072E000C880B990B0E5F1F4FF32DFF764D
:100BC0003F2E97FF09C090958095709561957F4F56
:100BD0008F4F9F4FF0683F2E2AE030E0A3010E9424
:100BE0001607882E861845C0853731F4232D2F7EB1
:100BF000B22E2AE030E025C0932D997FB92E8F3692
:100C0000C1F018F4883579F0B5C0803719F088370D
:100C100021F0B0C0E92FE061BE2EB4FE0DC0FB2D67
:100C2000F460BF2E09C034FE0AC0292F2660B22E00
:100C300006C028E030E005C020E130E002C020E13D
:100C400032E0F801B7FE07C0608171818281938133
:100C50000C5F1F4F06C06081718180E090E00E5FE5
:100C60001F4FA3010E941607882E8618FB2DFF77C1
:100C70003F2E36FE0DC0232D2E7FA22E891458F450
:100C800034FE0BC032FC09C0832D8E7EA82E05C019
:100C9000B82CA32C03C0B82C01C0B92CA4FE0FC0E3
:100CA000FE01E80DF11D8081803321F49A2D997E9B
:100CB000A92E09C0A2FE06C0B394B39404C08A2D25
:100CC000867809F0B394A3FC11C0A0FE06C0B2144C
:100CD00088F4280C922C9B180EC0B21460F4B60154
:100CE00080E290E00E94DA06B394F7CFB21418F4D1
:100CF0002B1802C0982C212CA4FE10C0B60180E352
:100D000090E00E94DA06A2FE17C0A1FC03C088E7AB
:100D100090E002C088E590E0B6010CC08A2D86788C
:100D200059F0A1FE02C08BE201C080E2A7FC8DE277
:100D3000B60190E00E94DA06891438F4B60180E327
:100D400090E00E94DA069A94F7CF8A94F301E80DB6
:100D5000F11D8081B60190E00E94DA068110F5CF86
:100D6000222009F442CEB60180E290E00E94DA0629
:100D70002A94F6CFF6018681978102C08FEF9FEF0C
:100D80002B96E2E10C949007FC01059061507040B5
:100D90000110D8F7809590958E0F9F1F0895FC0144
:100DA0006150704001900110D8F7809590958E0F9A
:100DB0009F1F08950F931F93CF93DF93FB01238110
:100DC00021FD03C08FEF9FEF2CC022FF16C046818C
:100DD0005781248135814217530744F4A081B181A2
:100DE0009D012F5F3F4F318320838C932681378174
:100DF0002F5F3F4F3783268314C08B01EC01FB012B
:100E00000084F185E02D0995892BE1F6D80116962D
:100E10008D919C911797019617969C938E93169798
:100E2000CE01DF91CF911F910F910895FA01AA276A
:100E3000283051F1203181F1E8946F936E7F6E5F1D
:100E40007F4F8F4F9F4FAF4FB1E03ED0B4E03CD0CB
:100E5000670F781F891F9A1FA11D680F791F8A1FAE
:100E6000911DA11D6A0F711D811D911DA11D20D015
:100E700009F468943F912AE0269F11243019305DCF
:100E80003193DEF6CF010895462F4770405D4193C0
:100E9000B3E00FD0C9F7F6CF462F4F70405D4A330D
:100EA00018F0495D31FD4052419302D0A9F7EACFD5
:100EB000B4E0A6959795879577956795BA95C9F704
:100EC00000976105710508959B01AC010A2E0694F7
:100ED0005795479537952795BA95C9F7620F731FB0
:100EE000841F951FA01D08952F923F924F925F92ED
:100EF0006F927F928F929F92AF92BF92CF92DF922A
:100F0000EF92FF920F931F93CF93DF93CDB7DEB78E
:100F1000CA1BDB0B0FB6F894DEBF0FBECDBF099422
:100F20002A88398848885F846E847D848C849B8479
:100F3000AA84B984C884DF80EE80FD800C811B8187
:100F4000AA81B981CE0FD11D0FB6F894DEBF0FBEB6
:0A0F5000CDBFED010895F894FFCF26
:100F5A0000000000000000005F000000000700071A
:100F6A000000147F147F1400242A7F2A12002313FE
:100F7A00086462003649552250000005030000004B
:100F8A00001C224100000041221C000014083E08F7
:100F9A00140008083E080800005030000000080845
:100FAA000808080000606000000020100804020021
:100FBA003E5149453E0000427F400000426151498E
:100FCA0046002141454B31001814127F1000274575
:100FDA00454539003C4A4949300001710905030079
:100FEA00364949493600064949291E000036360065
:100FFA0000000056360000000814224100001414B4
:10100A0014141400004122140800020151090600B8
:10101A0002027E4040407E1111117E007F494949FB
:10102A0036003E41414122007F4141221C007F4956
:10103A00494941007F09090901003E4149497A00AD
:10104A007F0808087F0000417F4100002040413F9F
:10105A0001007F08142241007F40404040007F0287
:10106A000C027F007F0408107F003E4141413E0090
:10107A007F09090906003E4151215E007F091929AD
:10108A00460046494949310001017F0101003F40BC
:10109A0040403F001F2040201F003F4038403F0093
:1010AA006314081463000708700807006151494572
:1010BA004300007F41410000020408102000004163
:1010CA00417F000004020102040040404040400009
:1010DA000001020400002054545478007F4844441C
:1010EA003800384444442000384444487F00385487
:1010FA0054541800087E090102000C5252523E0054
:10110A007F080404780000447D4000002040443DEC
:10111A0000007F102844000000417F4000007C044A
:10112A00180478007C0804047800384444443800E1
:10113A007C1414140800081414187C007C08040495
:10114A000800485454542000043F444020003C40C6
:10115A0040207C001C2040201C003C4030403C00C9
:10116A004428102844000C5050503C004464544C0D
:10117A00440002020202020240407E020202404091
:10118A004040404010080810080078464146780060
:10119A002564007D7C7B407D7C7B407D7C7B407D23
:1011AA007C7B407D7C7B40007C7B407D7C7B407DE2
:1011BA007C7B407D7C7B407D7C7B407D00256C6414
:1011CA0000467265713A00447574796379636C3AC2
:0E11DA00005B2054205D005B2020205D0000A3
:00000001FF
